:1000000022EF02F00000000000EF00F0000000000E
:0A0010000000000000000000F3D71C
:0E001C00ACB202D00000FCD709C1ADFF12004B
:10002A00A6A202D00000FCD7A69C07C1A9FF08C15E
:10003A00A8FFA69EA684F2CF00F0F29E550EA76EE8
:10004A00AA0EA76EA68200BE02D0F29E01D0F28E40
:04005A00A694120056
:10005E00AECF01F0ABA202D0AB98AB8801C000F0DE
:02006E0012007E
:0A007000000E9EBA010E006E120091
:10007A000101006B07C1E9FF08C1EAFFEECFFFF0FB
:10008A000001FF51000A0EE0FFC009F1C2DF0101C1
:10009A00002B00510725E96E000E0821EA6EEECF0B
:0600AA00FFF0EED712008A
:1000B000A69CFFC0A9FFA69EA680A8CF00F01200B4
:1000C000D7DF005252E0CBDF00C0F2F0000E1D1867
:1000D00002E1020E1C1810E1030E1C6E000E1D6ED4
:1000E000030E0101076FF2C008F19FDF030E00014C
:1000F000FF6FDEDF00C01BF0000E1D1802E1010ED5
:100100001C1810E1020E1C6E000E1D6E020E010185
:10011000076FF2C008F189DF020E0001FF6FC8DF30
:1001200000C0B5F0000E1D1802E1000E1C1810E111
:10013000010E1C6E000E1D6E010E0101076FF2C054
:1001400008F173DF010E0001FF6FB2DF00C0DBF0CA
:10015000D90E0101076F000E086F8FDF000E1D180A
:1001600002E1030E1C1801E101D0AAD70A0E010119
:10017000096F54DF0D0E0101096F50DF0A0E0101F6
:0E018000096F4CDF0D0E0101096F48DF120000
:10018E001C0E0001F36F000EF46F090EF56F010ED9
:10019E00F66F5E0E0101016F000E026F000E036F0F
:1001AE00000E046F700E0001FB6F000EFC6F000E50
:1001BE00FD6F000EFE6FFF0EF76FFF0EF86F000E55
:1001CE00F96F000EFA6FAC8A900EAB6E948E949C03
:0C01DE009EAA03D0AECF00F0FBD71200A9
:1001EA000900F5CFE6FF0006FBE10106F9E112007E
:1001FA00B886010EB06EA00EAF6EAC84C3DF956AEE
:10020A00836A010EFF6F4FDF00C0DBF0020EFF6F43
:10021A004ADF00C0B5F0030EFF6F45DF00C01BF0D8
:02022A001200C0
:10022C000101056B066B838A8384030E0B6E080E2B
:10023C000C6E770E0D6E0D2EFED70C2EFCD70B2EE2
:10024C00FAD783948386030E0B6E080E0C6E770E12
:10025C000D6E0D2EFED70C2EFCD70B2EFAD78396D7
:10026C008388030E0B6E080E0C6E770E0D6E0D2E22
:10027C00FED70C2EFCD70B2EFAD78398054B062BEA
:10028C00800E006E800E0619005C02E105511E08FE
:0A029C0001E201D0C9D7839A1200D5
:1002A6000A0E0101096FB7DE0D0E0101096FB3DEFB
:1002B6000A0E0101096FAFDE0D0E0101096FABDEFB
:1002C6005D0E0101076F000E086FD4DE0A0E0101F4
:1002D600096FA1DE0D0E0101096F9DDE0A0E0101F7
:1002E600096F99DE0D0E0101096F95DE490E0101B8
:1002F600076F000E086FBEDE0A0E0101096F8BDE66
:100306000D0E0101096F87DE330E0101076F000E26
:10031600086FB0DE0A0E0101096F7DDE0D0E0101C8
:10032600096F79DE960E0101076F000E086FA2DED7
:100336000A0E0101096F6FDE0D0E0101096F6BDEFA
:100346000A0E0101096F67DE0D0E0101096F63DEFA
:100356007F0E0101076F000E086F8CDE86DE0052ED
:10036600D8B46BD079DE00C0F2F00050590A05E02F
:100376000001F251790A01E019D0190E0101076F47
:10038600000E086F77DE838083920A0E0101096FE3
:1003960042DE0D0E0101096F3EDE0A0E0101096FF4
:1003A6003ADE0D0E0101096F36DE48D00001F2512A
:1003B6004E0A04E0F2516E0A01E019D0170E01014F
:1003C600076F000E086F56DE839083820A0E0101C6
:1003D600096F21DE0D0E0101096F1DDE0A0E0101F6
:1003E600096F19DE0D0E0101096F15DE27D0000118
:1003F600F251430A04E0F251630A01E01ED0150EE1
:100406000101076F000E086F35DE0A0E0101096F44
:1004160002DE0D0E0101096FFEDD0A0E0101096FF4
:10042600FADD0D0E0101096FF6DD1E0E0101076FE3
:0E043600000E086F1FDE41DE01D090D71200CD
:1004440024EC03F0D8DEC80E0101076F000E086F1C
:1004540012DE0CDE0052D8B483D0FFDD00C0F2F00F
:1004640000500001DB190AE1000EF11902E1000E4F
:10047400F01904E1010EF06F000EF16FF251B5199D
:100484000AE1000EF11902E1010EF01904E1020E75
:10049400F06F000EF16FF2511B180AE1000EF11912
:1004A40002E1020EF01904E1030EF06F000EF16F89
:1004B400F2510D0A1AE1000EF11902E1030EF019CE
:1004C40014E1F06BF16BEE6BEF6B0A0E0101096F37
:1004D400A3DD0D0E0101096F9FDDDC0E0101076F25
:1004E400000E086FC8DDDDDE3CD00001F2510D0ABC
:1004F40031E1000EF11902E1030EF0192BE0F06B6B
:10050400F16B0A0E0101096F87DD0D0E0101096F00
:1005140083DDB80E0101076F000E086FACDD00012A
:10052400EE4BEF2B000EEF1902E1030EEE1901E181
:100534007BDE01010A0E096F6FDD0D0E0101096FEB
:100544006BDD0A0E0101096F67DD0D0E0101096FF4
:1005540063DD07D0B60E0101076F000E086F8BDD57
:0605640078D771D7FFD724
:1006480010EE15F0DD0E006E010E016E6A0EF66EEC
:0E065800050EF76E000EF86EF5EC00F01200C5
:02056A0043004C
:02056C004E003F
:02056E00590032
:010570003357
:02057100000088
:10057300456E746572204E65772050617373776F93
:0505830072643A200043
:100588003229205072657373204E20746F20556E87
:060598006C6F636B2E0086
:10059E003129205072657373205920746F204C6F6F
:0405AE00636B2E004D
:1005B20053656C656374206F6E65206F6620746886
:1005C200652062656C6F77204F7074696F6E733A45
:0205D200200007
:1005D40057616974696E6720666F72205265737023
:0705E4006F6E73653A200001
:1005EB003329205072657373204320746F20436846
:0F05FB00616E67652050617373776F72642E00B5
:01060A0032BD
:02060B002A00C3
:10060D0057726F6E672050617373776F72642E002F
:10061D00456E7465722050617373776F72643A2002
:01062D0000CC
:02062E002A00A0
:010630003198
:10063100436F72726563742050617373776F726474
:020641002E0089
:020643000000B5
:020645000000B3
:020000040030CA
:0D000100021F1EFF8381FF0FC00FE00F40A4
:00000001FF
