:02000000AF2D22
:0E000600213083120313FD00FD0B07280800B4
:100014000F3083120313FC004730FD00FD0B102842
:0A002400FC0B10280000000008008B
:06002E00000000000800C4
:10003400FB14FB1F2428FF30F300F200F100F00052
:08004400FA0DF20CFF30080078
:10004C0083160313AB1B2D28831286112F288312C2
:10005C00861583162B1B352883120611372883121D
:10006C0006158316AB1A3D28831286103F2883127F
:10007C00861483162B1A45288312061047288312E0
:10008C00061465184B2806164C28061286161720DF
:10009C0086128316AB1955288312861157288312A2
:1000AC00861583162B195D28831206115F2883127F
:1000BC0006158316AB1865288312861067288312E1
:1000CC00861483162B186D28831206106F28831242
:1000DC00061465187328061674280612861617203F
:0E00EC008612651C7B280A207C280320080051
:1000FA007B15FB1F87280130F300F201F101F001A3
:08010A00FA0DF20CFF300800B1
:08011200FA1FF213003008008F
:0E011A00F201F101F001F801F30100300800DC
:0E0128008312031367088A006608820008002D
:1001360083120313651083162908AB002620651465
:020146000800AF
:10014800A0017208031DB9287108F2007008F100B7
:10015800F001A0157208031DB9287108F200F10119
:10016800A011201672080319C7282008F302031DDE
:10017800031CCB280310F21BCF28F00DF10DF20D54
:10018800F30BBF28CB280130FC008D20D228023089
:0E019800FC007D20D2280430FC0089200800E5
:1001A6000E3083120313FD00FD0BD7280000080054
:1001B600831603132908F2007208F100F20A2A08CE
:1001C600F000AA0A700884000008F0007108840094
:1001D600700880007108840000080319F328DF28DE
:0601E6002908F0000800EA
:1001EC0083120313FA017308031D7A147708031D95
:1001FC00FA147A0803194229033A03190D297A18BB
:10020C000A29F61F40293E29F21F3E29402972086F
:10021C008039FA00F21376088039F6137A0603193E
:10022C001B297A0803193E29402977087302031900
:10023C002229031C36293A29760872020319292926
:10024C00031C36293A297508710203193029031C3D
:10025C0036293A29740870020319422903183A29DD
:10026C00FA08031940293E29FA0803193E294029A6
:10027C0003140800031008000314031508000800F9
:10028C0083120313FB017308031D770803199D29BF
:10029C0072087606FA007708F3077E30031C5A2999
:1002AC00F3020318A0295D29F302031CA329720889
:1002BC00F8007108FC007008FD00F817F617031021
:1002CC00F201F101F0011830A0007D1C77297408AF
:1002DC00F00775080318750FF10776080318760FE9
:1002EC00F207F20CF10CF00CF80CFC0CFD0C0310EA
:1002FC00A00B6B29F21B8729F80DF00DF10DF20DF7
:10030C00F3037B1B701C9929F81F9929F00A031918
:10031C00F10A0319F20A031D9929F20CF10CF00CE5
:10032C00F30A0319A029FA1FF2130030A529013092
:10033C008D20A52902301A20A52904307D2000002B
:02034C000800A7
:10034E0083120313F8010830FC00700DF80D7408C9
:10035E00F8020318B429F8070310F00DFC0BAC29B2
:02036E00080085
:06037000FB15FF30080040
:10037600831203139F01C0309F0483161F179F1714
:1003860083126C08F000F00D7010F00D7010F00D77
:10039600701070089F041F14D3201F151F1DD52928
:1003A6000000D1291F101E08F100F00183161E0857
:0803B600F0040030F10408001E
:1003BE0083120313EE01EF0183162008A500210816
:1003CE00A6002208A7002308A8002808FF3A031D4C
:1003DE00FA292708FF3A031DFA292608FF3A031DBA
:1003EE00FA292508FF3A031D042A2408A900213002
:1003FE00AA00DB200330F000FB2B01308312EC004F
:10040E008316A71F172A80302706F0007008A70052
:10041E008312EC0A8316240884002D308000A40A6F
:10042E000030F0002806031D262A70082706031D3B
:10043E00262A70082606031D262A2508003A031DC3
:10044E002F2A2408A9002730AA00DB20F001FB2B5D
:10045E002808FF3A031D3D2A2708003A031D3D2AAE
:10046E002608003A031D3D2A2508003A031D482A96
:10047E002408A9002930AA00DB2083126C08F000A2
:10048E00FB2B0030F4000030F5000030F6007F301A
:10049E00F70083162508F0002608F1002708F20061
:1004AE002808F300F620013003180030F000700821
:1004BE0003197F2A83162508F0002608F100270865
:1004CE00F2002808F3000030F4000030F500203070
:1004DE00F6008230F700462170088316A5007108D9
:1004EE00A6007208A7007308A8008312EF03482A1B
:1004FE000030F4000030F5002030F6008230F700B6
:10050E0083162508F0002608F1002708F2002808B7
:10051E00F300F6200130031C0030F00070080319C0
:10052E00B62A83162508F0002608F1002708F200E7
:10053E002808F300CD30F400CC30F5004C30F60036
:10054E007B30F700462170088316A5007108A600BF
:10055E007208A7007308A8008312EF0A7F2AFF30E3
:10056E0083162505F800FF302605F9007F30270594
:10057E00FA0000302805FB007808F4007908F50031
:10058E007A08F6007B08F700F40DF50DF60DF70D61
:10059E00741000302505F00000302605F100003003
:1005AE002705F200FF302805F3007008A50071083A
:1005BE00A6007208A7007308A80074082504F000AE
:1005CE0075082604F10076082704F200770828043F
:1005DE00F3007008A5007108A6007208A700730842
:1005EE00A8007F302802F00070088312ED00013061
:1005FE008316A8007008F4002508F0002608F10004
:10060E002708F2002808F30074080319152BF00DC3
:10061E00F10DF20DF30D7010FF3E0C2B83167008CA
:10062E00A5007108A6007208A7007308A800280884
:10063E00303EF0002408840070088000A40A803048
:10064E0083126F06F0008030013A7002031C382BC3
:10065E008030063AF00080306F067002031C382B93
:10066E00412B8316240884002E308000A40A01300A
:10067E008312EE000630ED006D08003A0319A32B2D
:10068E008316A8012508F0002608F1002708F200BD
:10069E002808F300F00DF10DF20DF30D7010F00DB2
:1006AE00F10DF20DF30D70102508F0072608031852
:1006BE00260FF10727080318270FF207280803183B
:1006CE00280FF3077008A5007108A6007208A7008E
:1006DE007308A8002508F0002608F1002708F2008C
:1006EE002808F300F00DF10DF20DF30D70107008E7
:1006FE00A5007108A6007208A7007308A8002808B4
:10070E00303EF0002408840070088000A40A831292
:10071E006E08003A031DA12BEF036F08003A031D6C
:10072E00A12B8316240884002E308000A40A0130E9
:10073E008312EE00ED03432BFF3083162407840053
:10074E000008303A031DAD2BA403A32BFF30240762
:10075E00840000082E3A031DB52BA40383126F08E4
:10076E00003A0319F62B83162408840065308000A6
:10077E00A40A803083126F06F0008030003A7002B7
:10078E000318D32B8316240884002D308000A40A6E
:10079E0083126F08003CEF006F08ED006F08093CF4
:1007AE000318E62B0A30F4006D08F000A721303054
:1007BE00F00783162408840070088000A40A0A300B
:1007CE00F40083126D08F000A7217808F000303095
:1007DE00F00783162408840070088000A40A83168C
:0A07EE00240884008001F0010800D7
:1007F800831203137008F8007108F000F101F20188
:10080800F301FB01FC019630F300FA017008F100D6
:0C0818007808F000F801F201A4200800AC
:10082400831203137408003A031D2D2C7508003A33
:10083400031D2D2C7608003A031D2D2C7708003A51
:10084400031D2D2CFF30F000FF30F1007F30F2004B
:10085400FF30F300C82C8312031377080319BC2C50
:1008640073080319BF2C720876068039FA00F21750
:10087400F617A0017208F8007108FC007008FD006A
:100884007408FD027508031C750FFC027608031C2E
:10089400760FF802F801FC01FD01031C582C03102B
:1008A400F20CF10CF00CF80C0130A0007708F30204
:1008B400031C622C7E302007F3070318C22C672C1C
:1008C4007E302007F307031CC52C1830FA07FD0DF2
:1008D400FC0DF80DF00DF10DF20DA00D7408F002F1
:1008E4007508031C750FF1027608031C760FF202DB
:1008F400760DA004201C802C7D148B2C7408F0072A
:1009040075080318750FF10776080318760AF207BD
:100914007D10FA031F307A05031D692C7B1B7D1C97
:10092400B22C0310F00DF10DF20DA00D7408F002BD
:100934007508031C750FF1027608031C760FF2028A
:10094400760D20040139FD070318FC0A0319F80A7F
:10095400031DB22CF80CFC0CFD0CF30A0319C22C79
:10096400FA1FF8137808F2007C08F1007D08F00003
:100974000030C72C0130B821C72C02308D20C72C81
:0E09840004301A20C72C08307D200000080027
:1009920083120313ED016D086C078400000803192C
:1009A200DB2C6D086C07840000088316A9009B20CD
:0609B200ED0ACC2C080048
:1009B8008316031386120612061086100611861176
:1009C80083128612061286110611861006100A2056
:1009D8000A200A20861406148616172086120A2072
:1009E8008616172086120A208616172086120A20D5
:1009F80006108616172086120A20861617208612D9
:100A0800861086158616172086120A208611061467
:100A180086161720861206108616172086120A20B8
:100A280086161720861206148616172086120A20A4
:100A380006108616172086128615061586140614C3
:0C0A48008616172086120A20651408008C
:100A54003C2D803083120313EC004F2DC030EC008A
:100A64004F2D9430EC004F2DD430EC004F2D8030BE
:100A7400EC004F2D831203136C08013A03192B2D3C
:100A84006C08023A0319302D6C08033A0319332D0C
:100A94006C08043A0319362D392D6D03F0006C08E7
:100AA400F0077008EC0070088316AB002620651070
:100AB400EF016F086E078400000803196A2D6F08A0
:100AC4006E07840000088316A9009B20EF0A5B2DA3
:040AD400651408009D
:100AD8007E2D803083120313EC00912DC030EC0082
:100AE800912D9430EC00912DD430EC00912D803074
:100AF800EC00912D831203136C08013A03196D2D34
:100B08006C08023A0319722D6C08033A0319752D03
:100B18006C08043A0319782D7B2D6D03F0006C08DE
:100B2800F0077008EC00651470088316AB002620E7
:0E0B380065106E088316AB00262065140800B9
:100B460094208A110A128000840AE60A0319E70A29
:080B5600F003031DA32D0800AC
:100B5E005E26831603138601FF30850080309F00CA
:100B6E00DC2401308316AB0026200C308316AB003C
:100B7E0026200330EC000230ED002D30EE002A2549
:100B8E000430EC000530ED004030EE002A25EC017B
:100B9E00BB21FC23F630F4002830F5001C30F600A3
:100BAE008130F70046210030F4000030F50020308F
:100BBE00F6008230F70012247008E8007108E90090
:100BCE007208EA007308EB000130EC000130ED0012
:100BDE005D30EE002A2568088316A000831269088E
:100BEE008316A10083126A088316A20083126B0873
:100BFE008316A3004D30A400DF214D308312031362
:100C0E00EC00C9240130EC000E30ED00DF30EE00B8
:0C0C1E006C252530EC00C924CE2D142ECE
:100CBC0021308400443083120313F0001A30E60014
:080CCC000630E700A325080033
:080C34004E3461344E340034EB
:040C3C004334003409
:040C40003034003418
:080C440049344E3446340034FB
:100C4C007734773477342E345434683465344534FF
:100C5C006E34673469346E34653465347234693497
:060C6C006E346734003411
:100C7200503472346F346A34653463347434733488
:0A0C82002E3463346F346D340034F7
:100C8C0000340034003400340034003400340034B8
:100C9C0000340034003400340034003400340034A8
:100CAC00543465346D34703420343D342034003485
:02400E004A2F37
:00000001FF
