:020000040000FA
:020000000528D1
:040002000034003492
:08000800492883160313880147
:100010000030870001308600850083160317013009
:10002000880089018316031318128312031398178B
:100030008316031324309800831603131930990094
:1000400083160313073081000130950083160313D4
:100050009F018312031381309F00831203137030BA
:100060008B0083120313EC30810088018701860125
:1000700085013F30F1003F30F0006330F20039304D
:10008000F3000430F6000A30F700831203138B17D5
:100090004828F400030EF5008B1855280B198E28FC
:1000A0000C18B4280C1B6828BF288B109F148312CF
:1000B000031331309000831203130B308F00DC30B8
:1000C0008E00831603130C170C1483120313BF281E
:1000D0000C130310831603139E0D831203139E0D3E
:1000E0001E0874208120BF28FA010A309E02FA0AF5
:1000F00003187628FA030A309E077A08C920F00010
:100100000800FB0101309E02FB0A03188328FB0351
:1001100001309E077B08C920F10008000B11EC306C
:100120008100F60B9428AD2803117608033CF800F3
:1001300003199E287818A328F818A828730888009F
:1001400087018715BF287208880087010715BF2817
:100150007108880087018714BF287008880087010C
:1001600007140430F600BF280C100B308F00DC3071
:100170008E00F70BBF280A30F7009F14D420750EAD
:100180008300F40E740E0900FA30F900F90BC6284A
:10019000080082073F3406345B344F3466346D34D4
:1001A0007D3407347F346F3430307A079900C420AF
:1001B000C42030307B079900C420A7309900C420A8
:0E01C00043309900C42009309900C420080083
:02400E00F1209F
:02401000FF3F70
:00000001FF
