:020000040000FA
:020000000528D1
:040002000034003492
:080008003B2883160313880155
:100010000030870001308600850083160317013009
:100020008800890183160313073081000130950091
:10003000831603139F018312031381309F008312E1
:10004000031370308B0083120313D83081008801B2
:100050008701860185013F30F1003F30F0006330B9
:10006000F2003930F3000430F6000A30F700831252
:1000700003138B173A28F400030EF5008B1847285A
:100080000B197B280C18A1280C1B5A28AB288B10A5
:100090009F148312031331309000831203130B302B
:1000A0008F00DC308E00831603130C170C148312A0
:1000B0000313AB280C1303109E0D1E0861206E2045
:1000C000AB28FA010A309E02FA0A03186328FA03E1
:1000D0000A309E077A08B520F0000800FB010130C5
:1000E0009E02FB0A03187028FB0301309E077B0861
:1000F000B520F10008000B11D8308100F60B8128E3
:100100009A2803117608033CF80003198B28781805
:100110009028F81895287308880087018715AB2860
:100120007208880087010715AB28710888008701CD
:100130008714AB2870088800870107140430F60084
:10014000AB280C100B308F00DC308E00F70BAB2887
:100150000A30F7009F14750E8300F40E740E090028
:10016000FA30F900F90BB228080082073F34063450
:100170005B344F3466346D347D3407347F346F34F0
:02400E00F1209F
:02401000FF3F70
:00000001FF
