:020000040000FA
:020000000528D1
:040002000034003492
:0800080042288316031388014E
:1000100000308700013086008501013088008901A9
:1000200083160313073081000130950083120313F8
:10003000303090008316031300309F0083120313A7
:1000400081309F008312031330308B00831203131F
:100050000B308F00DC308E0083120313D830810008
:1000600088018701860185013F30F1003F30F000B3
:100070006330F2003930F3000430F60083120313CA
:100080008B174128F400030EF5008B184E280B192E
:100090006E280C1894280C1B52289D288B10A22027
:1000A0009F149D280C1303109E0C1E0858206320DB
:1000B000FA01FA0A0A3C031D5828FA030A3E7A0894
:1000C000A620F0000800FB01FB0A013C031D632889
:1000D000FB03013E7B08A620F10008000B11D8307D
:1000E0008100F60B74288D2803117608033CF80074
:1000F00003197E2878188328F81888287308880040
:10010000870187159D2872088800870107159D289B
:1001100071088800870187149D287008880087016E
:1001200007140430F6009D280C100B308F00DC30D3
:100130008E00F70B9D28A2209F14750E8300F40EED
:10014000740E0900FA30F900F90BA42882073F3435
:1001500006345B344F3466346D347D3407347F3479
:020160006F34FA
:02400E00F1209F
:02401000FF3F70
:00000001FF
