:020000040000FA
:020000000528D1
:040002000034003492
:0800080041288316031388014F
:100010000030870001308600850188018901831640
:100020000313073081000130950083120313303031
:1000300090008316031300309F0083120313803057
:100040009F008312031330308B00831203130B3095
:100050008F00DC308E0083120313EC3081008801A6
:100060008701860185013F30F1003F30F0006330A9
:10007000F2003930F3000430F600831203138B17BB
:100080004028F400030EF5008B184D280B19512859
:100090000C1877280C1B50287E288B109F147E2864
:1000A0000C130B11EC308100F60B5728702803114C
:1000B0007608033CF7000319612877186628F718BB
:1000C0006B2873088800870187157E2872088800CE
:1000D000870107157E2871088800870187147E280C
:1000E00070088800870107140430F6007E280C1081
:1000F0000B308F00DC308E00F80B7E28750E8300ED
:10010000F40E740E0900FA30F900F90B8528820705
:100110003F3406345B344F3466346D347D340734F9
:040120007F346F3485
:02400E00F1209F
:02401000FF3F70
:00000001FF
