:020000040000FA
:020000000528D1
:040002000034003492
:080008002E2883160313880162
:100010008701013086008316031788018901831246
:10002000031388018701860183160313873081003B
:100030008312031330308B0083120313EC308100E2
:100040003F30F1003F30F0006330F2003930F30010
:100050000430F600831203138B172D28F400030ECF
:10006000F5008B183A280B193E280C1864280C1B35
:100070003D286B288B109F1409000C130B11EC30DA
:100080008100F60B44285D2803117608033CF80034
:1000900003194E2878185328F81858287308880030
:1000A000870187156B2872088800870107156B2860
:1000B00071088800870187146B2870088800870101
:1000C00007140430F6006B280C100B308F00DC3066
:1000D0008E00F70B6B28750E8300F40E740E09006A
:1000E00082073F3406345B344F3466346D347D34DC
:0600F00007347F346F3479
:02400E00F13F80
:02401000FF3F70
:00000001FF
