:020000003B2A99
:0C000600000000000000000000000800E6
:0E001200533083120313FD00FD0B0D28080070
:10002000243083120313FC00B530FD00FD0B1628AD
:0A003000FC0B162800000000080079
:10003A0083120317CB1B23288611242886154B1BF2
:10004A002828061129280615CB1A2D2886102E28AD
:10005A0086144B1A32280610332806143F183728FC
:10006A00061638280612861603208612CB193F2850
:10007A008611402886154B1944280611452806156D
:10008A00CB18492886104A2886144B184E28061081
:10009A004F2806143F1853280616542806128616A7
:1000AA00032086123F1C5B2810205C2809200800C8
:1000BA00831203173F104A08CB001D2003173F1471
:0200CA0008002C
:1000CC007828803083120317C6008B28C030C600F6
:1000DC008B289430C6008B28D430C6008B288030F7
:1000EC00C6008B28831203174608013A03196728A8
:1000FC004608023A03196C284608033A03196F287C
:10010C004608043A0319722875284703F00046087C
:10011C00F0077008C6007008CB001D2003173F10B5
:10012C00C90149084807840000080319A528490893
:10013C00480784000008CA005D20C90A97283F14AC
:02014C000800A9
:0E014E00831603136F088A006E0882000800F3
:10015C0083160313861206120610861006118611DA
:10016C0083128612061286110611861006101020B4
:10017C0010201020861406148616032086121020D8
:10018C008616032086121020861603208612102055
:10019C00061086160320861210208616032086125F
:1001AC0086108615861603208612102086110614DA
:1001BC00861603208612061086160320861210203F
:1001CC00861603208612061486160320861210202B
:1001DC00061086160320861286150615861406143C
:0E01EC00861603208612102003173F14080009
:1001FA00013083120317CB001D2001300317C600FC
:10020A000130C7005930C80066200230C6000130EC
:10021A00C7001030C80066201A30FB005E30FC00B0
:10022A006E30FD00FD0B1729FC0B1729FB0B172954
:10023A0000000130CB001D2001300317C600013039
:10024A00C700DC30C80066200F30CB001D20C0304C
:08025A000317CB001D20080072
:0A026200FF30831603138800080024
:10026C00103083120313FD00FD0B3A290000080027
:10027C00831203174308F1004408F2000130C30253
:10028C00031CC40300307206031D4E290030710696
:10029C0003196929410884000008F1004208840010
:1002AC007108000603196629410884000008F00053
:1002BC00420884000008F002F101031CF1036B29D1
:0C02CC00C10AC20A3E29F001F10108003D
:1002D80083120317C101C301C4011030C5000430E3
:1002E800440203189C29F0300313880003174509BA
:1002F800831603138800032003200F308312080598
:10030800F00070080317C200700803199629430803
:10031800C100420803199429C20CC213C10A8D29CD
:100328000430C400C50D45100430C307C40A73293E
:060338004108F00008007E
:10033E00013083120317CB001D2066300317C10056
:10034E003830C2000630C3000030C4003E217008B1
:10035E007104031DC5290130C6000130C7002730C6
:10036E00C80066200230C6000130C7001B30C8002E
:10037E0066200130F0000030F100E4290130C600A3
:10038E000130C700AB30C80066200230C600013015
:10039E00C700A030C80066203330FB00BB30FC0025
:1003AE00DF30FD00FD0BD929FC0BD929FB0BD92918
:0C03BE0000000000FD20F001F10108002B
:1003CA006C217008C0000F3003130805F0000319F0
:0E03DA00F0293621E82903174008F00008003A
:1003E800A7208A110A128000840AEE0A0319EF0A6C
:0803F800F003031DF4290800C5
:10040000AE200130CB001D200C300317CB001D2087
:1004100001300317C6000130C7004E30C800662007
:100420000230C6000130C7004030C80066200330EB
:10043000C6000230C7002D30C80066200430C60058
:100440000530C7002030C80066207F30FB00D43064
:10045000FC003130FD00FD0B2B2AFC0B2B2AFB0B83
:100460002B2A00000000FD20831686018312ED0177
:06047000EE01312108003D
:100476007424002203138312EF0100306E06031D5D
:10048600462A06306D06031D852A9F218312031313
:1004960070184F2A8613502A8617ED01EE01861F23
:1004A600852A1A30FB005E30FC006E30FD00FD0B25
:1004B6005A2AFC0B5A2AFB0B5A2A00000130031752
:1004C600CB001D2001300317C6000130C700CD3018
:1004D600C80066200230C6000130C700BE30C80022
:1004E60066200C30CB001D20E52170080313EF00B9
:1004F60070080D3A031D772A6F080D3A031D852AE9
:100506008613FD20E52170080313EF007008031918
:10051600852A612B3130EF0031300317CA005D2088
:1005260003136D08383E84006F088000ED0A031936
:10053600EE0AA22B3230EF0032300317CA005D20DC
:1005460003136D08383E84006F088000ED0A031916
:10055600EE0AA22B3330EF0033300317CA005D20BA
:1005660003136D08383E84006F088000ED0A0319F6
:10057600EE0AA22B4130EF0041300317CA005D207E
:10058600A22B34300313EF0034300317CA005D206A
:1005960003136D08383E84006F088000ED0A0319C6
:1005A600EE0AA22B3530EF0035300317CA005D2066
:1005B60003136D08383E84006F088000ED0A0319A6
:1005C600EE0AA22B3630EF0036300317CA005D2044
:1005D60003136D08383E84006F088000ED0A031986
:1005E600EE0AA22B4230EF0042300317CA005D200C
:1005F600A22B37300313EF0037300317CA005D20F4
:1006060003136D08383E84006F088000ED0A031955
:10061600EE0AA22B3830EF0038300317CA005D20EF
:1006260003136D08383E84006F088000ED0A031935
:10063600EE0AA22B3930EF0039300317CA005D20CD
:1006460003136D08383E84006F088000ED0A031915
:10065600EE0AA22B4330EF0043300317CA005D2099
:10066600A22B2A300313EF0010300317CB001D20F6
:100676000130ED02031CEE03A22B3030EF003030C8
:100686000317CA005D2003136D08383E84006F0807
:100696008000ED0A0319EE0AA22B2330EF00143076
:1006A6000317CB001D20ED0A0319EE0AA22B4430D6
:1006B600EF0044300317CA005D20A22B03136F0816
:1006C600013A03198D2A6F08023A03199D2A6F0809
:1006D600033A0319AD2A6F08043A0319BD2A6F08B5
:1006E600053A0319C42A6F08063A0319D52A6F0872
:1006F600073A0319E52A6F08083A0319F52A6F081D
:10070600093A0319FC2A6F080A3A03190D2B6F08D8
:100716000B3A03191D2B6F080C3A03192D2B6F0882
:100726000D3A0319342B6F080E3A0319402B6F0844
:100736000F3A0319502B6F08103A03195A2B3D2A0A
:02074600A32BE3
:1008E80020308400463083120313F000A9308316A9
:1008F800EE000330EF00F421A03084003C30F0001B
:10090800EF308316EE000330EF00F42166308400E8
:100918000730F0006C308316EE000430EF00F4214D
:10092800DC3084001230F0005A308316EE000430B8
:10093800EF00F4211030831784002F30F0002B30A3
:0E0948008316EE000430EF00F4218313080044
:10075200503472346F346A346534633474347334AD
:0A0762002E3463346F346D3400341C
:10076C007734773477342E345434683465344534E4
:10077C006E34673469346E3465346534723469347C
:06078C006E3467340034F6
:10079200503461347334733477346F347234643464
:0C07A20020344C346F3463346B3400346A
:1007AE00573465346C3463346F346D3465342034AF
:0607BE0074346F340034B6
:1007C4004D346F3474346F34723420346934733478
:0A07D40020344F34663466340034DC
:1007DE00543472347934203441346734613469349A
:0607EE006E3421340034DA
:1007F40049346E3463346F34723472346534633420
:1008040074342034503461347334733477346F3433
:060814007234643400346C
:10081A0061346E34643420344C346F3463346B3452
:0E082A00203461346734613469346E34003434
:100838005034723465347334733420342A34203499
:0E08480074346F3420344F3466346634003418
:1008560061346E34643420344C346F3463346B3416
:0608660065346434003427
:10086C004D346F3474346F347234203469347334CF
:08087C0020346F346E340034A7
:10088400503461347334733477346F347234643471
:1008940020344D34613474346334683465346434DE
:0208A40000341E
:0E08A6003034303430343034303430340034B8
:1008B40045346E3474346534723420343634203420
:1008C4006434693467346934743420346E346F3476
:0408D4003A3400347E
:0E08D80031343234333431343234333400347A
:02400E007A3BFB
:00000001FF
